{
  "_format": "hh-sol-artifact-1",
  "contractName": "MarketPlace",
  "sourceName": "contracts/MarketPlace.sol",
  "abi": [
    {
      "inputs": [
        {
          "internalType": "uint256",
          "name": "_feePercent",
          "type": "uint256"
        }
      ],
      "stateMutability": "nonpayable",
      "type": "constructor"
    },
    {
      "anonymous": false,
      "inputs": [
        {
          "indexed": false,
          "internalType": "uint256",
          "name": "itemId",
          "type": "uint256"
        },
        {
          "indexed": true,
          "internalType": "address",
          "name": "nft",
          "type": "address"
        },
        {
          "indexed": false,
          "internalType": "uint256",
          "name": "tokenId",
          "type": "uint256"
        },
        {
          "indexed": false,
          "internalType": "uint256",
          "name": "price",
          "type": "uint256"
        },
        {
          "indexed": true,
          "internalType": "address",
          "name": "seller",
          "type": "address"
        },
        {
          "indexed": true,
          "internalType": "address",
          "name": "brought",
          "type": "address"
        }
      ],
      "name": "Bought",
      "type": "event"
    },
    {
      "anonymous": false,
      "inputs": [
        {
          "indexed": false,
          "internalType": "uint256",
          "name": "itemCount",
          "type": "uint256"
        },
        {
          "indexed": true,
          "internalType": "address",
          "name": "nft",
          "type": "address"
        },
        {
          "indexed": false,
          "internalType": "uint256",
          "name": "tokenId",
          "type": "uint256"
        },
        {
          "indexed": false,
          "internalType": "uint256",
          "name": "price",
          "type": "uint256"
        },
        {
          "indexed": true,
          "internalType": "address",
          "name": "seller",
          "type": "address"
        }
      ],
      "name": "offered",
      "type": "event"
    },
    {
      "inputs": [
        {
          "internalType": "contract IERC721",
          "name": "_nft",
          "type": "address"
        },
        {
          "internalType": "uint256",
          "name": "_tokenId",
          "type": "uint256"
        },
        {
          "internalType": "uint256",
          "name": "_price",
          "type": "uint256"
        }
      ],
      "name": "addItem",
      "outputs": [],
      "stateMutability": "nonpayable",
      "type": "function"
    },
    {
      "inputs": [],
      "name": "feeAccount",
      "outputs": [
        {
          "internalType": "address payable",
          "name": "",
          "type": "address"
        }
      ],
      "stateMutability": "view",
      "type": "function"
    },
    {
      "inputs": [],
      "name": "feePercent",
      "outputs": [
        {
          "internalType": "uint256",
          "name": "",
          "type": "uint256"
        }
      ],
      "stateMutability": "view",
      "type": "function"
    },
    {
      "inputs": [
        {
          "internalType": "uint256",
          "name": "_itemId",
          "type": "uint256"
        }
      ],
      "name": "getPriceNFT",
      "outputs": [
        {
          "internalType": "uint256",
          "name": "",
          "type": "uint256"
        }
      ],
      "stateMutability": "view",
      "type": "function"
    },
    {
      "inputs": [],
      "name": "itemCount",
      "outputs": [
        {
          "internalType": "uint256",
          "name": "",
          "type": "uint256"
        }
      ],
      "stateMutability": "view",
      "type": "function"
    },
    {
      "inputs": [
        {
          "internalType": "uint256",
          "name": "",
          "type": "uint256"
        }
      ],
      "name": "items",
      "outputs": [
        {
          "internalType": "uint256",
          "name": "itemID",
          "type": "uint256"
        },
        {
          "internalType": "contract IERC721",
          "name": "nft",
          "type": "address"
        },
        {
          "internalType": "uint256",
          "name": "tokenId",
          "type": "uint256"
        },
        {
          "internalType": "uint256",
          "name": "price",
          "type": "uint256"
        },
        {
          "internalType": "address payable",
          "name": "seller",
          "type": "address"
        },
        {
          "internalType": "bool",
          "name": "sold",
          "type": "bool"
        }
      ],
      "stateMutability": "view",
      "type": "function"
    },
    {
      "inputs": [
        {
          "internalType": "uint256",
          "name": "_itemId",
          "type": "uint256"
        }
      ],
      "name": "purchaseItem",
      "outputs": [],
      "stateMutability": "payable",
      "type": "function"
    }
  ],
  "bytecode": "0x60c060405234801561001057600080fd5b506040516200117e3803806200117e833981810160405281019061003491906100b9565b60016000819055503373ffffffffffffffffffffffffffffffffffffffff1660808173ffffffffffffffffffffffffffffffffffffffff16815250508060a08181525050506100e6565b600080fd5b6000819050919050565b61009681610083565b81146100a157600080fd5b50565b6000815190506100b38161008d565b92915050565b6000602082840312156100cf576100ce61007e565b5b60006100dd848285016100a4565b91505092915050565b60805160a0516110646200011a600039600081816101e6015261020e0152600081816101bc015261078b01526110646000f3fe6080604052600436106100705760003560e01c806387fe04461161004e57806387fe0446146100f6578063bfb231d214610133578063c1b91dd914610175578063d38ea5bf1461019e57610070565b806365e17c9d146100755780636bfb0d01146100a05780637fd6f15c146100cb575b600080fd5b34801561008157600080fd5b5061008a6101ba565b60405161009791906109cd565b60405180910390f35b3480156100ac57600080fd5b506100b56101de565b6040516100c29190610a01565b60405180910390f35b3480156100d757600080fd5b506100e06101e4565b6040516100ed9190610a01565b60405180910390f35b34801561010257600080fd5b5061011d60048036038101906101189190610a4d565b610208565b60405161012a9190610a01565b60405180910390f35b34801561013f57600080fd5b5061015a60048036038101906101559190610a4d565b61026b565b60405161016c96959493929190610af4565b60405180910390f35b34801561018157600080fd5b5061019c60048036038101906101979190610ba5565b6102f4565b005b6101b860048036038101906101b39190610a4d565b6105c6565b005b7f000000000000000000000000000000000000000000000000000000000000000081565b60015481565b7f000000000000000000000000000000000000000000000000000000000000000081565b600060647f000000000000000000000000000000000000000000000000000000000000000060646102399190610c27565b600260008581526020019081526020016000206003015461025a9190610c5b565b6102649190610ce4565b9050919050565b60026020528060005260406000206000915090508060000154908060010160009054906101000a900473ffffffffffffffffffffffffffffffffffffffff16908060020154908060030154908060040160009054906101000a900473ffffffffffffffffffffffffffffffffffffffff16908060040160149054906101000a900460ff16905086565b6002600054141561033a576040517f08c379a000000000000000000000000000000000000000000000000000000000815260040161033190610d72565b60405180910390fd5b600260008190555060008111610385576040517f08c379a000000000000000000000000000000000000000000000000000000000815260040161037c90610dde565b60405180910390fd5b6001600081548092919061039890610dfe565b91905055508273ffffffffffffffffffffffffffffffffffffffff166323b872dd3330856040518463ffffffff1660e01b81526004016103da93929190610e56565b600060405180830381600087803b1580156103f457600080fd5b505af1158015610408573d6000803e3d6000fd5b505050506040518060c0016040528060015481526020018473ffffffffffffffffffffffffffffffffffffffff1681526020018381526020018281526020013373ffffffffffffffffffffffffffffffffffffffff168152602001600015158152506002600060015481526020019081526020016000206000820151816000015560208201518160010160006101000a81548173ffffffffffffffffffffffffffffffffffffffff021916908373ffffffffffffffffffffffffffffffffffffffff160217905550604082015181600201556060820151816003015560808201518160040160006101000a81548173ffffffffffffffffffffffffffffffffffffffff021916908373ffffffffffffffffffffffffffffffffffffffff16021790555060a08201518160040160146101000a81548160ff0219169083151502179055509050503373ffffffffffffffffffffffffffffffffffffffff168373ffffffffffffffffffffffffffffffffffffffff167fdbac4bb85b8f64732592b4091517366a78dcf20ef7bbad3443eb8bcda4bd9d3d60015485856040516105b193929190610e8d565b60405180910390a36001600081905550505050565b6002600054141561060c576040517f08c379a000000000000000000000000000000000000000000000000000000000815260040161060390610d72565b60405180910390fd5b6002600081905550600061061f82610208565b9050600060026000848152602001908152602001600020905060008311801561064a57506001548311155b610689576040517f08c379a000000000000000000000000000000000000000000000000000000000815260040161068090610f10565b60405180910390fd5b813411156106cc576040517f08c379a00000000000000000000000000000000000000000000000000000000081526004016106c390610fa2565b60405180910390fd5b8060040160149054906101000a900460ff161561071e576040517f08c379a00000000000000000000000000000000000000000000000000000000081526004016107159061100e565b60405180910390fd5b8060040160009054906101000a900473ffffffffffffffffffffffffffffffffffffffff1673ffffffffffffffffffffffffffffffffffffffff166108fc839081150290604051600060405180830381858888f19350505050158015610788573d6000803e3d6000fd5b507f000000000000000000000000000000000000000000000000000000000000000073ffffffffffffffffffffffffffffffffffffffff166108fc8260030154846107d39190610c27565b9081150290604051600060405180830381858888f193505050501580156107fe573d6000803e3d6000fd5b5060018160040160146101000a81548160ff0219169083151502179055508060010160009054906101000a900473ffffffffffffffffffffffffffffffffffffffff1673ffffffffffffffffffffffffffffffffffffffff166323b872dd3033856040518463ffffffff1660e01b815260040161087d93929190610e56565b600060405180830381600087803b15801561089757600080fd5b505af11580156108ab573d6000803e3d6000fd5b505050503373ffffffffffffffffffffffffffffffffffffffff168160040160009054906101000a900473ffffffffffffffffffffffffffffffffffffffff1673ffffffffffffffffffffffffffffffffffffffff168260010160009054906101000a900473ffffffffffffffffffffffffffffffffffffffff1673ffffffffffffffffffffffffffffffffffffffff167f8b4c9c8a607d67b321582dd8461041b1dc2ceeca70c8b7f37f8e02095cf2e76d868560020154866003015460405161097793929190610e8d565b60405180910390a45050600160008190555050565b600073ffffffffffffffffffffffffffffffffffffffff82169050919050565b60006109b78261098c565b9050919050565b6109c7816109ac565b82525050565b60006020820190506109e260008301846109be565b92915050565b6000819050919050565b6109fb816109e8565b82525050565b6000602082019050610a1660008301846109f2565b92915050565b600080fd5b610a2a816109e8565b8114610a3557600080fd5b50565b600081359050610a4781610a21565b92915050565b600060208284031215610a6357610a62610a1c565b5b6000610a7184828501610a38565b91505092915050565b6000819050919050565b6000610a9f610a9a610a958461098c565b610a7a565b61098c565b9050919050565b6000610ab182610a84565b9050919050565b6000610ac382610aa6565b9050919050565b610ad381610ab8565b82525050565b60008115159050919050565b610aee81610ad9565b82525050565b600060c082019050610b0960008301896109f2565b610b166020830188610aca565b610b2360408301876109f2565b610b3060608301866109f2565b610b3d60808301856109be565b610b4a60a0830184610ae5565b979650505050505050565b6000610b608261098c565b9050919050565b6000610b7282610b55565b9050919050565b610b8281610b67565b8114610b8d57600080fd5b50565b600081359050610b9f81610b79565b92915050565b600080600060608486031215610bbe57610bbd610a1c565b5b6000610bcc86828701610b90565b9350506020610bdd86828701610a38565b9250506040610bee86828701610a38565b9150509250925092565b7f4e487b7100000000000000000000000000000000000000000000000000000000600052601160045260246000fd5b6000610c32826109e8565b9150610c3d836109e8565b925082821015610c5057610c4f610bf8565b5b828203905092915050565b6000610c66826109e8565b9150610c71836109e8565b9250817fffffffffffffffffffffffffffffffffffffffffffffffffffffffffffffffff0483118215151615610caa57610ca9610bf8565b5b828202905092915050565b7f4e487b7100000000000000000000000000000000000000000000000000000000600052601260045260246000fd5b6000610cef826109e8565b9150610cfa836109e8565b925082610d0a57610d09610cb5565b5b828204905092915050565b600082825260208201905092915050565b7f5265656e7472616e637947756172643a207265656e7472616e742063616c6c00600082015250565b6000610d5c601f83610d15565b9150610d6782610d26565b602082019050919050565b60006020820190508181036000830152610d8b81610d4f565b9050919050565b7f70726963652073686f756c642062652067726561746572207468616e20300000600082015250565b6000610dc8601e83610d15565b9150610dd382610d92565b602082019050919050565b60006020820190508181036000830152610df781610dbb565b9050919050565b6000610e09826109e8565b91507fffffffffffffffffffffffffffffffffffffffffffffffffffffffffffffffff821415610e3c57610e3b610bf8565b5b600182019050919050565b610e5081610b55565b82525050565b6000606082019050610e6b6000830186610e47565b610e786020830185610e47565b610e8560408301846109f2565b949350505050565b6000606082019050610ea260008301866109f2565b610eaf60208301856109f2565b610ebc60408301846109f2565b949350505050565b7f6974656d20646f65736e27742065786973740000000000000000000000000000600082015250565b6000610efa601283610d15565b9150610f0582610ec4565b602082019050919050565b60006020820190508181036000830152610f2981610eed565b9050919050565b7f6e6f7420656e6f75676820657468657220746f20636f7665722074686520707260008201527f69636520616e6420666565000000000000000000000000000000000000000000602082015250565b6000610f8c602b83610d15565b9150610f9782610f30565b604082019050919050565b60006020820190508181036000830152610fbb81610f7f565b9050919050565b7f6974656d20616c726561647920736f6c64000000000000000000000000000000600082015250565b6000610ff8601183610d15565b915061100382610fc2565b602082019050919050565b6000602082019050818103600083015261102781610feb565b905091905056fea2646970667358221220cb90eecda4b995fcefe95269d4f9595d1e65467846c9d136d0e6607b3e72dbfc64736f6c634300080b0033",
  "linkReferences": {},
  "deployedLinkReferences": {}
}